{
  "_format": "hh-sol-artifact-1",
  "contractName": "BalloonNFT",
  "sourceName": "contracts/BalloonNFT.sol",
  "abi": [
    {
      "inputs": [
        {
          "internalType": "string",
          "name": "baseURI",
          "type": "string"
        }
      ],
      "stateMutability": "nonpayable",
      "type": "constructor"
    },
    {
      "anonymous": false,
      "inputs": [
        {
          "indexed": true,
          "internalType": "address",
          "name": "owner",
          "type": "address"
        },
        {
          "indexed": true,
          "internalType": "address",
          "name": "approved",
          "type": "address"
        },
        {
          "indexed": true,
          "internalType": "uint256",
          "name": "tokenId",
          "type": "uint256"
        }
      ],
      "name": "Approval",
      "type": "event"
    },
    {
      "anonymous": false,
      "inputs": [
        {
          "indexed": true,
          "internalType": "address",
          "name": "owner",
          "type": "address"
        },
        {
          "indexed": true,
          "internalType": "address",
          "name": "operator",
          "type": "address"
        },
        {
          "indexed": false,
          "internalType": "bool",
          "name": "approved",
          "type": "bool"
        }
      ],
      "name": "ApprovalForAll",
      "type": "event"
    },
    {
      "anonymous": false,
      "inputs": [
        {
          "indexed": true,
          "internalType": "uint256",
          "name": "id",
          "type": "uint256"
        }
      ],
      "name": "CreateBalloon",
      "type": "event"
    },
    {
      "anonymous": false,
      "inputs": [
        {
          "indexed": true,
          "internalType": "address",
          "name": "previousOwner",
          "type": "address"
        },
        {
          "indexed": true,
          "internalType": "address",
          "name": "newOwner",
          "type": "address"
        }
      ],
      "name": "OwnershipTransferred",
      "type": "event"
    },
    {
      "anonymous": false,
      "inputs": [
        {
          "indexed": false,
          "internalType": "address",
          "name": "account",
          "type": "address"
        }
      ],
      "name": "Paused",
      "type": "event"
    },
    {
      "anonymous": false,
      "inputs": [
        {
          "indexed": true,
          "internalType": "address",
          "name": "from",
          "type": "address"
        },
        {
          "indexed": true,
          "internalType": "address",
          "name": "to",
          "type": "address"
        },
        {
          "indexed": true,
          "internalType": "uint256",
          "name": "tokenId",
          "type": "uint256"
        }
      ],
      "name": "Transfer",
      "type": "event"
    },
    {
      "anonymous": false,
      "inputs": [
        {
          "indexed": false,
          "internalType": "address",
          "name": "account",
          "type": "address"
        }
      ],
      "name": "Unpaused",
      "type": "event"
    },
    {
      "inputs": [],
      "name": "MAX_BY_MINT",
      "outputs": [
        {
          "internalType": "uint256",
          "name": "",
          "type": "uint256"
        }
      ],
      "stateMutability": "view",
      "type": "function"
    },
    {
      "inputs": [],
      "name": "MAX_ELEMENTS",
      "outputs": [
        {
          "internalType": "uint256",
          "name": "",
          "type": "uint256"
        }
      ],
      "stateMutability": "view",
      "type": "function"
    },
    {
      "inputs": [],
      "name": "PRICE",
      "outputs": [
        {
          "internalType": "uint256",
          "name": "",
          "type": "uint256"
        }
      ],
      "stateMutability": "view",
      "type": "function"
    },
    {
      "inputs": [
        {
          "internalType": "address",
          "name": "to",
          "type": "address"
        },
        {
          "internalType": "uint256",
          "name": "tokenId",
          "type": "uint256"
        }
      ],
      "name": "approve",
      "outputs": [],
      "stateMutability": "nonpayable",
      "type": "function"
    },
    {
      "inputs": [
        {
          "internalType": "address",
          "name": "owner",
          "type": "address"
        }
      ],
      "name": "balanceOf",
      "outputs": [
        {
          "internalType": "uint256",
          "name": "",
          "type": "uint256"
        }
      ],
      "stateMutability": "view",
      "type": "function"
    },
    {
      "inputs": [],
      "name": "baseTokenURI",
      "outputs": [
        {
          "internalType": "string",
          "name": "",
          "type": "string"
        }
      ],
      "stateMutability": "view",
      "type": "function"
    },
    {
      "inputs": [
        {
          "internalType": "uint256",
          "name": "tokenId",
          "type": "uint256"
        }
      ],
      "name": "burn",
      "outputs": [],
      "stateMutability": "nonpayable",
      "type": "function"
    },
    {
      "inputs": [],
      "name": "creatorAddress",
      "outputs": [
        {
          "internalType": "address",
          "name": "",
          "type": "address"
        }
      ],
      "stateMutability": "view",
      "type": "function"
    },
    {
      "inputs": [
        {
          "internalType": "uint256",
          "name": "tokenId",
          "type": "uint256"
        }
      ],
      "name": "getApproved",
      "outputs": [
        {
          "internalType": "address",
          "name": "",
          "type": "address"
        }
      ],
      "stateMutability": "view",
      "type": "function"
    },
    {
      "inputs": [
        {
          "internalType": "address",
          "name": "owner",
          "type": "address"
        },
        {
          "internalType": "address",
          "name": "operator",
          "type": "address"
        }
      ],
      "name": "isApprovedForAll",
      "outputs": [
        {
          "internalType": "bool",
          "name": "",
          "type": "bool"
        }
      ],
      "stateMutability": "view",
      "type": "function"
    },
    {
      "inputs": [
        {
          "internalType": "address",
          "name": "_to",
          "type": "address"
        },
        {
          "internalType": "uint256",
          "name": "_count",
          "type": "uint256"
        }
      ],
      "name": "mint",
      "outputs": [],
      "stateMutability": "payable",
      "type": "function"
    },
    {
      "inputs": [],
      "name": "name",
      "outputs": [
        {
          "internalType": "string",
          "name": "",
          "type": "string"
        }
      ],
      "stateMutability": "view",
      "type": "function"
    },
    {
      "inputs": [],
      "name": "owner",
      "outputs": [
        {
          "internalType": "address",
          "name": "",
          "type": "address"
        }
      ],
      "stateMutability": "view",
      "type": "function"
    },
    {
      "inputs": [
        {
          "internalType": "uint256",
          "name": "tokenId",
          "type": "uint256"
        }
      ],
      "name": "ownerOf",
      "outputs": [
        {
          "internalType": "address",
          "name": "",
          "type": "address"
        }
      ],
      "stateMutability": "view",
      "type": "function"
    },
    {
      "inputs": [
        {
          "internalType": "bool",
          "name": "val",
          "type": "bool"
        }
      ],
      "name": "pause",
      "outputs": [],
      "stateMutability": "nonpayable",
      "type": "function"
    },
    {
      "inputs": [],
      "name": "paused",
      "outputs": [
        {
          "internalType": "bool",
          "name": "",
          "type": "bool"
        }
      ],
      "stateMutability": "view",
      "type": "function"
    },
    {
      "inputs": [
        {
          "internalType": "uint256",
          "name": "_count",
          "type": "uint256"
        }
      ],
      "name": "price",
      "outputs": [
        {
          "internalType": "uint256",
          "name": "",
          "type": "uint256"
        }
      ],
      "stateMutability": "pure",
      "type": "function"
    },
    {
      "inputs": [],
      "name": "renounceOwnership",
      "outputs": [],
      "stateMutability": "nonpayable",
      "type": "function"
    },
    {
      "inputs": [
        {
          "internalType": "address",
          "name": "from",
          "type": "address"
        },
        {
          "internalType": "address",
          "name": "to",
          "type": "address"
        },
        {
          "internalType": "uint256",
          "name": "tokenId",
          "type": "uint256"
        }
      ],
      "name": "safeTransferFrom",
      "outputs": [],
      "stateMutability": "nonpayable",
      "type": "function"
    },
    {
      "inputs": [
        {
          "internalType": "address",
          "name": "from",
          "type": "address"
        },
        {
          "internalType": "address",
          "name": "to",
          "type": "address"
        },
        {
          "internalType": "uint256",
          "name": "tokenId",
          "type": "uint256"
        },
        {
          "internalType": "bytes",
          "name": "_data",
          "type": "bytes"
        }
      ],
      "name": "safeTransferFrom",
      "outputs": [],
      "stateMutability": "nonpayable",
      "type": "function"
    },
    {
      "inputs": [
        {
          "internalType": "address",
          "name": "operator",
          "type": "address"
        },
        {
          "internalType": "bool",
          "name": "approved",
          "type": "bool"
        }
      ],
      "name": "setApprovalForAll",
      "outputs": [],
      "stateMutability": "nonpayable",
      "type": "function"
    },
    {
      "inputs": [
        {
          "internalType": "string",
          "name": "baseURI",
          "type": "string"
        }
      ],
      "name": "setBaseURI",
      "outputs": [],
      "stateMutability": "nonpayable",
      "type": "function"
    },
    {
      "inputs": [
        {
          "internalType": "bytes4",
          "name": "interfaceId",
          "type": "bytes4"
        }
      ],
      "name": "supportsInterface",
      "outputs": [
        {
          "internalType": "bool",
          "name": "",
          "type": "bool"
        }
      ],
      "stateMutability": "view",
      "type": "function"
    },
    {
      "inputs": [],
      "name": "symbol",
      "outputs": [
        {
          "internalType": "string",
          "name": "",
          "type": "string"
        }
      ],
      "stateMutability": "view",
      "type": "function"
    },
    {
      "inputs": [
        {
          "internalType": "uint256",
          "name": "index",
          "type": "uint256"
        }
      ],
      "name": "tokenByIndex",
      "outputs": [
        {
          "internalType": "uint256",
          "name": "",
          "type": "uint256"
        }
      ],
      "stateMutability": "view",
      "type": "function"
    },
    {
      "inputs": [
        {
          "internalType": "address",
          "name": "owner",
          "type": "address"
        },
        {
          "internalType": "uint256",
          "name": "index",
          "type": "uint256"
        }
      ],
      "name": "tokenOfOwnerByIndex",
      "outputs": [
        {
          "internalType": "uint256",
          "name": "",
          "type": "uint256"
        }
      ],
      "stateMutability": "view",
      "type": "function"
    },
    {
      "inputs": [
        {
          "internalType": "uint256",
          "name": "tokenId",
          "type": "uint256"
        }
      ],
      "name": "tokenURI",
      "outputs": [
        {
          "internalType": "string",
          "name": "",
          "type": "string"
        }
      ],
      "stateMutability": "view",
      "type": "function"
    },
    {
      "inputs": [],
      "name": "totalMint",
      "outputs": [
        {
          "internalType": "uint256",
          "name": "",
          "type": "uint256"
        }
      ],
      "stateMutability": "view",
      "type": "function"
    },
    {
      "inputs": [],
      "name": "totalSupply",
      "outputs": [
        {
          "internalType": "uint256",
          "name": "",
          "type": "uint256"
        }
      ],
      "stateMutability": "view",
      "type": "function"
    },
    {
      "inputs": [
        {
          "internalType": "address",
          "name": "from",
          "type": "address"
        },
        {
          "internalType": "address",
          "name": "to",
          "type": "address"
        },
        {
          "internalType": "uint256",
          "name": "tokenId",
          "type": "uint256"
        }
      ],
      "name": "transferFrom",
      "outputs": [],
      "stateMutability": "nonpayable",
      "type": "function"
    },
    {
      "inputs": [
        {
          "internalType": "address",
          "name": "newOwner",
          "type": "address"
        }
      ],
      "name": "transferOwnership",
      "outputs": [],
      "stateMutability": "nonpayable",
      "type": "function"
    },
    {
      "inputs": [
        {
          "internalType": "address",
          "name": "_owner",
          "type": "address"
        }
      ],
      "name": "walletOfOwner",
      "outputs": [
        {
          "internalType": "uint256[]",
          "name": "",
          "type": "uint256[]"
        }
      ],
      "stateMutability": "view",
      "type": "function"
    },
    {
      "inputs": [],
      "name": "withdrawAll",
      "outputs": [],
      "stateMutability": "payable",
      "type": "function"
    }
  ],
  "bytecode": "0x60806040523480156200001157600080fd5b50604051620052e2380380620052e283398181016040528101906200003791906200064e565b6040518060400160405280600a81526020017f42616c6c6f6f6e4e4654000000000000000000000000000000000000000000008152506040518060400160405280600381526020017f50504700000000000000000000000000000000000000000000000000000000008152508160009080519060200190620000bb9291906200052c565b508060019080519060200190620000d49291906200052c565b505050620000f7620000eb6200013c60201b60201c565b6200014460201b60201c565b6000600a60146101000a81548160ff02191690831515021790555062000123816200020a60201b60201c565b620001356001620002b560201b60201c565b50620009cc565b600033905090565b6000600a60009054906101000a900473ffffffffffffffffffffffffffffffffffffffff16905081600a60006101000a81548173ffffffffffffffffffffffffffffffffffffffff021916908373ffffffffffffffffffffffffffffffffffffffff1602179055508173ffffffffffffffffffffffffffffffffffffffff168173ffffffffffffffffffffffffffffffffffffffff167f8be0079c531659141344cd1fd0a4f28419497f9722a3daafe3b4186f6b6457e060405160405180910390a35050565b6200021a6200013c60201b60201c565b73ffffffffffffffffffffffffffffffffffffffff16620002406200037c60201b60201c565b73ffffffffffffffffffffffffffffffffffffffff161462000299576040517f08c379a000000000000000000000000000000000000000000000000000000000815260040162000290906200077a565b60405180910390fd5b80600c9080519060200190620002b19291906200052c565b5050565b620002c56200013c60201b60201c565b73ffffffffffffffffffffffffffffffffffffffff16620002eb6200037c60201b60201c565b73ffffffffffffffffffffffffffffffffffffffff161462000344576040517f08c379a00000000000000000000000000000000000000000000000000000000081526004016200033b906200077a565b60405180910390fd5b600115158115151415620003685762000362620003a660201b60201c565b62000379565b620003786200045e60201b60201c565b5b50565b6000600a60009054906101000a900473ffffffffffffffffffffffffffffffffffffffff16905090565b620003b66200051560201b60201c565b15620003f9576040517f08c379a0000000000000000000000000000000000000000000000000000000008152600401620003f09062000758565b60405180910390fd5b6001600a60146101000a81548160ff0219169083151502179055507f62e78cea01bee320cd4e420270b5ea74000d11b0c9f74754ebdbfc544b05a258620004456200013c60201b60201c565b60405162000454919062000719565b60405180910390a1565b6200046e6200051560201b60201c565b620004b0576040517f08c379a0000000000000000000000000000000000000000000000000000000008152600401620004a79062000736565b60405180910390fd5b6000600a60146101000a81548160ff0219169083151502179055507f5db9ee0a495bf2e6ff9c91a7834c1ba4fdd244a5e8aa4e537bd38aeae4b073aa620004fc6200013c60201b60201c565b6040516200050b919062000719565b60405180910390a1565b6000600a60149054906101000a900460ff16905090565b8280546200053a9062000876565b90600052602060002090601f0160209004810192826200055e5760008555620005aa565b82601f106200057957805160ff1916838001178555620005aa565b82800160010185558215620005aa579182015b82811115620005a95782518255916020019190600101906200058c565b5b509050620005b99190620005bd565b5090565b5b80821115620005d8576000816000905550600101620005be565b5090565b6000620005f3620005ed84620007c5565b6200079c565b9050828152602081018484840111156200060c57600080fd5b6200061984828562000840565b509392505050565b600082601f8301126200063357600080fd5b815162000645848260208601620005dc565b91505092915050565b6000602082840312156200066157600080fd5b600082015167ffffffffffffffff8111156200067c57600080fd5b6200068a8482850162000621565b91505092915050565b6200069e816200080c565b82525050565b6000620006b3601483620007fb565b9150620006c08262000951565b602082019050919050565b6000620006da601083620007fb565b9150620006e7826200097a565b602082019050919050565b600062000701602083620007fb565b91506200070e82620009a3565b602082019050919050565b600060208201905062000730600083018462000693565b92915050565b600060208201905081810360008301526200075181620006a4565b9050919050565b600060208201905081810360008301526200077381620006cb565b9050919050565b600060208201905081810360008301526200079581620006f2565b9050919050565b6000620007a8620007bb565b9050620007b68282620008ac565b919050565b6000604051905090565b600067ffffffffffffffff821115620007e357620007e262000911565b5b620007ee8262000940565b9050602081019050919050565b600082825260208201905092915050565b6000620008198262000820565b9050919050565b600073ffffffffffffffffffffffffffffffffffffffff82169050919050565b60005b838110156200086057808201518184015260208101905062000843565b8381111562000870576000848401525b50505050565b600060028204905060018216806200088f57607f821691505b60208210811415620008a657620008a5620008e2565b5b50919050565b620008b78262000940565b810181811067ffffffffffffffff82111715620008d957620008d862000911565b5b80604052505050565b7f4e487b7100000000000000000000000000000000000000000000000000000000600052602260045260246000fd5b7f4e487b7100000000000000000000000000000000000000000000000000000000600052604160045260246000fd5b6000601f19601f8301169050919050565b7f5061757361626c653a206e6f7420706175736564000000000000000000000000600082015250565b7f5061757361626c653a2070617573656400000000000000000000000000000000600082015250565b7f4f776e61626c653a2063616c6c6572206973206e6f7420746865206f776e6572600082015250565b61490680620009dc6000396000f3fe6080604052600436106101ee5760003560e01c806359a7715a1161010d5780638da5cb5b116100a0578063c87b56dd1161006f578063c87b56dd146106e3578063d547cfb714610720578063e927fc5c1461074b578063e985e9c514610776578063f2fde38b146107b3576101ee565b80638da5cb5b1461063b57806395d89b4114610666578063a22cb46514610691578063b88d4fde146106ba576101ee565b8063715018a6116100dc578063715018a6146105c4578063853828b6146105db5780638ad5de28146105e55780638d859f3e14610610576101ee565b806359a7715a146104f45780635c975abb1461051f5780636352211e1461054a57806370a0823114610587576101ee565b80632f745c591161018557806342966c681161015457806342966c6814610428578063438b6300146104515780634f6ccce71461048e57806355f804b3146104cb576101ee565b80632f745c591461037b5780633502a716146103b857806340c10f19146103e357806342842e0e146103ff576101ee565b8063095ea7b3116101c1578063095ea7b3146102c157806318160ddd146102ea57806323b872dd1461031557806326a49e371461033e576101ee565b806301ffc9a7146101f357806302329a291461023057806306fdde0314610259578063081812fc14610284575b600080fd5b3480156101ff57600080fd5b5061021a600480360381019061021591906132dc565b6107dc565b6040516102279190613983565b60405180910390f35b34801561023c57600080fd5b50610257600480360381019061025291906132b3565b6107ee565b005b34801561026557600080fd5b5061026e610890565b60405161027b919061399e565b60405180910390f35b34801561029057600080fd5b506102ab60048036038101906102a6919061336f565b610922565b6040516102b891906138fa565b60405180910390f35b3480156102cd57600080fd5b506102e860048036038101906102e39190613277565b6109a7565b005b3480156102f657600080fd5b506102ff610abf565b60405161030c9190613d20565b60405180910390f35b34801561032157600080fd5b5061033c60048036038101906103379190613171565b610acc565b005b34801561034a57600080fd5b506103656004803603810190610360919061336f565b610b2c565b6040516103729190613d20565b60405180910390f35b34801561038757600080fd5b506103a2600480360381019061039d9190613277565b610b4a565b6040516103af9190613d20565b60405180910390f35b3480156103c457600080fd5b506103cd610bef565b6040516103da9190613d20565b60405180910390f35b6103fd60048036038101906103f89190613277565b610bf5565b005b34801561040b57600080fd5b5061042660048036038101906104219190613171565b610e28565b005b34801561043457600080fd5b5061044f600480360381019061044a919061336f565b610e48565b005b34801561045d57600080fd5b506104786004803603810190610473919061310c565b610ea4565b6040516104859190613961565b60405180910390f35b34801561049a57600080fd5b506104b560048036038101906104b0919061336f565b610f9e565b6040516104c29190613d20565b60405180910390f35b3480156104d757600080fd5b506104f260048036038101906104ed919061332e565b611035565b005b34801561050057600080fd5b506105096110cb565b6040516105169190613d20565b60405180910390f35b34801561052b57600080fd5b506105346110da565b6040516105419190613983565b60405180910390f35b34801561055657600080fd5b50610571600480360381019061056c919061336f565b6110f1565b60405161057e91906138fa565b60405180910390f35b34801561059357600080fd5b506105ae60048036038101906105a9919061310c565b6111a3565b6040516105bb9190613d20565b60405180910390f35b3480156105d057600080fd5b506105d961125b565b005b6105e36112e3565b005b3480156105f157600080fd5b506105fa611392565b6040516106079190613d20565b60405180910390f35b34801561061c57600080fd5b50610625611397565b6040516106329190613d20565b60405180910390f35b34801561064757600080fd5b5061065061139d565b60405161065d91906138fa565b60405180910390f35b34801561067257600080fd5b5061067b6113c7565b604051610688919061399e565b60405180910390f35b34801561069d57600080fd5b506106b860048036038101906106b3919061323b565b611459565b005b3480156106c657600080fd5b506106e160048036038101906106dc91906131c0565b6115da565b005b3480156106ef57600080fd5b5061070a6004803603810190610705919061336f565b61163c565b604051610717919061399e565b60405180910390f35b34801561072c57600080fd5b506107356116e3565b604051610742919061399e565b60405180910390f35b34801561075757600080fd5b50610760611771565b60405161076d91906138fa565b60405180910390f35b34801561078257600080fd5b5061079d60048036038101906107989190613135565b611789565b6040516107aa9190613983565b60405180910390f35b3480156107bf57600080fd5b506107da60048036038101906107d5919061310c565b61181d565b005b60006107e782611915565b9050919050565b6107f661198f565b73ffffffffffffffffffffffffffffffffffffffff1661081461139d565b73ffffffffffffffffffffffffffffffffffffffff161461086a576040517f08c379a000000000000000000000000000000000000000000000000000000000815260040161086190613c00565b60405180910390fd5b6001151581151514156108845761087f611997565b61088d565b61088c611a3a565b5b50565b60606000805461089f90614014565b80601f01602080910402602001604051908101604052809291908181526020018280546108cb90614014565b80156109185780601f106108ed57610100808354040283529160200191610918565b820191906000526020600020905b8154815290600101906020018083116108fb57829003601f168201915b5050505050905090565b600061092d82611adc565b61096c576040517f08c379a000000000000000000000000000000000000000000000000000000000815260040161096390613be0565b60405180910390fd5b6004600083815260200190815260200160002060009054906101000a900473ffffffffffffffffffffffffffffffffffffffff169050919050565b60006109b2826110f1565b90508073ffffffffffffffffffffffffffffffffffffffff168373ffffffffffffffffffffffffffffffffffffffff161415610a23576040517f08c379a0000000000000000000000000000000000000000000000000000000008152600401610a1a90613c80565b60405180910390fd5b8073ffffffffffffffffffffffffffffffffffffffff16610a4261198f565b73ffffffffffffffffffffffffffffffffffffffff161480610a715750610a7081610a6b61198f565b611789565b5b610ab0576040517f08c379a0000000000000000000000000000000000000000000000000000000008152600401610aa790613b40565b60405180910390fd5b610aba8383611b48565b505050565b6000600880549050905090565b610add610ad761198f565b82611c01565b610b1c576040517f08c379a0000000000000000000000000000000000000000000000000000000008152600401610b1390613cc0565b60405180910390fd5b610b27838383611cdf565b505050565b6000610b4382612710611f3b90919063ffffffff16565b9050919050565b6000610b55836111a3565b8210610b96576040517f08c379a0000000000000000000000000000000000000000000000000000000008152600401610b8d90613a20565b60405180910390fd5b600660008473ffffffffffffffffffffffffffffffffffffffff1673ffffffffffffffffffffffffffffffffffffffff168152602001908152602001600020600083815260200190815260200160002054905092915050565b6122b881565b6122b8610c00611f51565b1115610c41576040517f08c379a0000000000000000000000000000000000000000000000000000000008152600401610c3890613bc0565b60405180910390fd5b610c4961139d565b73ffffffffffffffffffffffffffffffffffffffff16610c6761198f565b73ffffffffffffffffffffffffffffffffffffffff1614610ccb57610c8a6110da565b15610cca576040517f08c379a0000000000000000000000000000000000000000000000000000000008152600401610cc190613b20565b60405180910390fd5b5b6000610cd5611f51565b90506122b88282610ce69190613e49565b1115610d27576040517f08c379a0000000000000000000000000000000000000000000000000000000008152600401610d1e90613ae0565b60405180910390fd5b6122b8811115610d6c576040517f08c379a0000000000000000000000000000000000000000000000000000000008152600401610d6390613bc0565b60405180910390fd5b6014821115610db0576040517f08c379a0000000000000000000000000000000000000000000000000000000008152600401610da790613a00565b60405180910390fd5b610db982610b2c565b341015610dfb576040517f08c379a0000000000000000000000000000000000000000000000000000000008152600401610df290613c60565b60405180910390fd5b60005b82811015610e2257610e0f84611f62565b8080610e1a90614077565b915050610dfe565b50505050565b610e43838383604051806020016040528060008152506115da565b505050565b610e59610e5361198f565b82611c01565b610e98576040517f08c379a0000000000000000000000000000000000000000000000000000000008152600401610e8f90613d00565b60405180910390fd5b610ea181611fb3565b50565b60606000610eb1836111a3565b905060008167ffffffffffffffff811115610ef5577f4e487b7100000000000000000000000000000000000000000000000000000000600052604160045260246000fd5b604051908082528060200260200182016040528015610f235781602001602082028036833780820191505090505b50905060005b82811015610f9357610f3b8582610b4a565b828281518110610f74577f4e487b7100000000000000000000000000000000000000000000000000000000600052603260045260246000fd5b6020026020010181815250508080610f8b90614077565b915050610f29565b508092505050919050565b6000610fa8610abf565b8210610fe9576040517f08c379a0000000000000000000000000000000000000000000000000000000008152600401610fe090613ce0565b60405180910390fd5b60088281548110611023577f4e487b7100000000000000000000000000000000000000000000000000000000600052603260045260246000fd5b90600052602060002001549050919050565b61103d61198f565b73ffffffffffffffffffffffffffffffffffffffff1661105b61139d565b73ffffffffffffffffffffffffffffffffffffffff16146110b1576040517f08c379a00000000000000000000000000000000000000000000000000000000081526004016110a890613c00565b60405180910390fd5b80600c90805190602001906110c7929190612f30565b5050565b60006110d5611f51565b905090565b6000600a60149054906101000a900460ff16905090565b6000806002600084815260200190815260200160002060009054906101000a900473ffffffffffffffffffffffffffffffffffffffff169050600073ffffffffffffffffffffffffffffffffffffffff168173ffffffffffffffffffffffffffffffffffffffff16141561119a576040517f08c379a000000000000000000000000000000000000000000000000000000000815260040161119190613b80565b60405180910390fd5b80915050919050565b60008073ffffffffffffffffffffffffffffffffffffffff168273ffffffffffffffffffffffffffffffffffffffff161415611214576040517f08c379a000000000000000000000000000000000000000000000000000000000815260040161120b90613b60565b60405180910390fd5b600360008373ffffffffffffffffffffffffffffffffffffffff1673ffffffffffffffffffffffffffffffffffffffff168152602001908152602001600020549050919050565b61126361198f565b73ffffffffffffffffffffffffffffffffffffffff1661128161139d565b73ffffffffffffffffffffffffffffffffffffffff16146112d7576040517f08c379a00000000000000000000000000000000000000000000000000000000081526004016112ce90613c00565b60405180910390fd5b6112e160006120c4565b565b6112eb61198f565b73ffffffffffffffffffffffffffffffffffffffff1661130961139d565b73ffffffffffffffffffffffffffffffffffffffff161461135f576040517f08c379a000000000000000000000000000000000000000000000000000000000815260040161135690613c00565b60405180910390fd5b60004790506000811161137157600080fd5b61138f732422e6015715fc4e41c927761e50493ec9c6cd504761218a565b50565b601481565b61271081565b6000600a60009054906101000a900473ffffffffffffffffffffffffffffffffffffffff16905090565b6060600180546113d690614014565b80601f016020809104026020016040519081016040528092919081815260200182805461140290614014565b801561144f5780601f106114245761010080835404028352916020019161144f565b820191906000526020600020905b81548152906001019060200180831161143257829003601f168201915b5050505050905090565b61146161198f565b73ffffffffffffffffffffffffffffffffffffffff168273ffffffffffffffffffffffffffffffffffffffff1614156114cf576040517f08c379a00000000000000000000000000000000000000000000000000000000081526004016114c690613ac0565b60405180910390fd5b80600560006114dc61198f565b73ffffffffffffffffffffffffffffffffffffffff1673ffffffffffffffffffffffffffffffffffffffff16815260200190815260200160002060008473ffffffffffffffffffffffffffffffffffffffff1673ffffffffffffffffffffffffffffffffffffffff16815260200190815260200160002060006101000a81548160ff0219169083151502179055508173ffffffffffffffffffffffffffffffffffffffff1661158961198f565b73ffffffffffffffffffffffffffffffffffffffff167f17307eab39ab6107e8899845ad3d59bd9653f200f220920489ca2b5937696c31836040516115ce9190613983565b60405180910390a35050565b6115eb6115e561198f565b83611c01565b61162a576040517f08c379a000000000000000000000000000000000000000000000000000000000815260040161162190613cc0565b60405180910390fd5b6116368484848461223b565b50505050565b606061164782611adc565b611686576040517f08c379a000000000000000000000000000000000000000000000000000000000815260040161167d90613c40565b60405180910390fd5b6000611690612297565b905060008151116116b057604051806020016040528060008152506116db565b806116ba84612329565b6040516020016116cb9291906138c1565b6040516020818303038152906040525b915050919050565b600c80546116f090614014565b80601f016020809104026020016040519081016040528092919081815260200182805461171c90614014565b80156117695780601f1061173e57610100808354040283529160200191611769565b820191906000526020600020905b81548152906001019060200180831161174c57829003601f168201915b505050505081565b732422e6015715fc4e41c927761e50493ec9c6cd5081565b6000600560008473ffffffffffffffffffffffffffffffffffffffff1673ffffffffffffffffffffffffffffffffffffffff16815260200190815260200160002060008373ffffffffffffffffffffffffffffffffffffffff1673ffffffffffffffffffffffffffffffffffffffff16815260200190815260200160002060009054906101000a900460ff16905092915050565b61182561198f565b73ffffffffffffffffffffffffffffffffffffffff1661184361139d565b73ffffffffffffffffffffffffffffffffffffffff1614611899576040517f08c379a000000000000000000000000000000000000000000000000000000000815260040161189090613c00565b60405180910390fd5b600073ffffffffffffffffffffffffffffffffffffffff168173ffffffffffffffffffffffffffffffffffffffff161415611909576040517f08c379a000000000000000000000000000000000000000000000000000000000815260040161190090613a60565b60405180910390fd5b611912816120c4565b50565b60007f780e9d63000000000000000000000000000000000000000000000000000000007bffffffffffffffffffffffffffffffffffffffffffffffffffffffff1916827bffffffffffffffffffffffffffffffffffffffffffffffffffffffff191614806119885750611987826124d6565b5b9050919050565b600033905090565b61199f6110da565b156119df576040517f08c379a00000000000000000000000000000000000000000000000000000000081526004016119d690613b20565b60405180910390fd5b6001600a60146101000a81548160ff0219169083151502179055507f62e78cea01bee320cd4e420270b5ea74000d11b0c9f74754ebdbfc544b05a258611a2361198f565b604051611a3091906138fa565b60405180910390a1565b611a426110da565b611a81576040517f08c379a0000000000000000000000000000000000000000000000000000000008152600401611a78906139e0565b60405180910390fd5b6000600a60146101000a81548160ff0219169083151502179055507f5db9ee0a495bf2e6ff9c91a7834c1ba4fdd244a5e8aa4e537bd38aeae4b073aa611ac561198f565b604051611ad291906138fa565b60405180910390a1565b60008073ffffffffffffffffffffffffffffffffffffffff166002600084815260200190815260200160002060009054906101000a900473ffffffffffffffffffffffffffffffffffffffff1673ffffffffffffffffffffffffffffffffffffffff1614159050919050565b816004600083815260200190815260200160002060006101000a81548173ffffffffffffffffffffffffffffffffffffffff021916908373ffffffffffffffffffffffffffffffffffffffff160217905550808273ffffffffffffffffffffffffffffffffffffffff16611bbb836110f1565b73ffffffffffffffffffffffffffffffffffffffff167f8c5be1e5ebec7d5bd14f71427d1e84f3dd0314c0f7b2291e5b200ac8c7c3b92560405160405180910390a45050565b6000611c0c82611adc565b611c4b576040517f08c379a0000000000000000000000000000000000000000000000000000000008152600401611c4290613b00565b60405180910390fd5b6000611c56836110f1565b90508073ffffffffffffffffffffffffffffffffffffffff168473ffffffffffffffffffffffffffffffffffffffff161480611cc557508373ffffffffffffffffffffffffffffffffffffffff16611cad84610922565b73ffffffffffffffffffffffffffffffffffffffff16145b80611cd65750611cd58185611789565b5b91505092915050565b8273ffffffffffffffffffffffffffffffffffffffff16611cff826110f1565b73ffffffffffffffffffffffffffffffffffffffff1614611d55576040517f08c379a0000000000000000000000000000000000000000000000000000000008152600401611d4c90613c20565b60405180910390fd5b600073ffffffffffffffffffffffffffffffffffffffff168273ffffffffffffffffffffffffffffffffffffffff161415611dc5576040517f08c379a0000000000000000000000000000000000000000000000000000000008152600401611dbc90613aa0565b60405180910390fd5b611dd08383836125b8565b611ddb600082611b48565b6001600360008573ffffffffffffffffffffffffffffffffffffffff1673ffffffffffffffffffffffffffffffffffffffff1681526020019081526020016000206000828254611e2b9190613f2a565b925050819055506001600360008473ffffffffffffffffffffffffffffffffffffffff1673ffffffffffffffffffffffffffffffffffffffff1681526020019081526020016000206000828254611e829190613e49565b92505081905550816002600083815260200190815260200160002060006101000a81548173ffffffffffffffffffffffffffffffffffffffff021916908373ffffffffffffffffffffffffffffffffffffffff160217905550808273ffffffffffffffffffffffffffffffffffffffff168473ffffffffffffffffffffffffffffffffffffffff167fddf252ad1be2c89b69c2b068fc378daa952ba7f163c4a11628f55a4df523b3ef60405160405180910390a4505050565b60008183611f499190613ed0565b905092915050565b6000611f5d600b6125c8565b905090565b6000611f6c611f51565b9050611f78600b6125d6565b611f8282826125ec565b807f782b737b9836bc64421074053935f8c9d978b0a6b9b5c410653af472e5839a6f60405160405180910390a25050565b6000611fbe826110f1565b9050611fcc816000846125b8565b611fd7600083611b48565b6001600360008373ffffffffffffffffffffffffffffffffffffffff1673ffffffffffffffffffffffffffffffffffffffff16815260200190815260200160002060008282546120279190613f2a565b925050819055506002600083815260200190815260200160002060006101000a81549073ffffffffffffffffffffffffffffffffffffffff021916905581600073ffffffffffffffffffffffffffffffffffffffff168273ffffffffffffffffffffffffffffffffffffffff167fddf252ad1be2c89b69c2b068fc378daa952ba7f163c4a11628f55a4df523b3ef60405160405180910390a45050565b6000600a60009054906101000a900473ffffffffffffffffffffffffffffffffffffffff16905081600a60006101000a81548173ffffffffffffffffffffffffffffffffffffffff021916908373ffffffffffffffffffffffffffffffffffffffff1602179055508173ffffffffffffffffffffffffffffffffffffffff168173ffffffffffffffffffffffffffffffffffffffff167f8be0079c531659141344cd1fd0a4f28419497f9722a3daafe3b4186f6b6457e060405160405180910390a35050565b60008273ffffffffffffffffffffffffffffffffffffffff16826040516121b0906138e5565b60006040518083038185875af1925050503d80600081146121ed576040519150601f19603f3d011682016040523d82523d6000602084013e6121f2565b606091505b5050905080612236576040517f08c379a000000000000000000000000000000000000000000000000000000000815260040161222d90613ca0565b60405180910390fd5b505050565b612246848484611cdf565b6122528484848461260a565b612291576040517f08c379a000000000000000000000000000000000000000000000000000000000815260040161228890613a40565b60405180910390fd5b50505050565b6060600c80546122a690614014565b80601f01602080910402602001604051908101604052809291908181526020018280546122d290614014565b801561231f5780601f106122f45761010080835404028352916020019161231f565b820191906000526020600020905b81548152906001019060200180831161230257829003601f168201915b5050505050905090565b60606000821415612371576040518060400160405280600181526020017f300000000000000000000000000000000000000000000000000000000000000081525090506124d1565b600082905060005b600082146123a357808061238c90614077565b915050600a8261239c9190613e9f565b9150612379565b60008167ffffffffffffffff8111156123e5577f4e487b7100000000000000000000000000000000000000000000000000000000600052604160045260246000fd5b6040519080825280601f01601f1916602001820160405280156124175781602001600182028036833780820191505090505b5090505b600085146124ca576001826124309190613f2a565b9150600a8561243f91906140c0565b603061244b9190613e49565b60f81b818381518110612487577f4e487b7100000000000000000000000000000000000000000000000000000000600052603260045260246000fd5b60200101907effffffffffffffffffffffffffffffffffffffffffffffffffffffffffffff1916908160001a905350600a856124c39190613e9f565b945061241b565b8093505050505b919050565b60007f80ac58cd000000000000000000000000000000000000000000000000000000007bffffffffffffffffffffffffffffffffffffffffffffffffffffffff1916827bffffffffffffffffffffffffffffffffffffffffffffffffffffffff191614806125a157507f5b5e139f000000000000000000000000000000000000000000000000000000007bffffffffffffffffffffffffffffffffffffffffffffffffffffffff1916827bffffffffffffffffffffffffffffffffffffffffffffffffffffffff1916145b806125b157506125b0826127a1565b5b9050919050565b6125c383838361280b565b505050565b600081600001549050919050565b6001816000016000828254019250508190555050565b612606828260405180602001604052806000815250612863565b5050565b600061262b8473ffffffffffffffffffffffffffffffffffffffff166128be565b15612794578373ffffffffffffffffffffffffffffffffffffffff1663150b7a0261265461198f565b8786866040518563ffffffff1660e01b81526004016126769493929190613915565b602060405180830381600087803b15801561269057600080fd5b505af19250505080156126c157506040513d601f19601f820116820180604052508101906126be9190613305565b60015b612744573d80600081146126f1576040519150601f19603f3d011682016040523d82523d6000602084013e6126f6565b606091505b5060008151141561273c576040517f08c379a000000000000000000000000000000000000000000000000000000000815260040161273390613a40565b60405180910390fd5b805181602001fd5b63150b7a0260e01b7bffffffffffffffffffffffffffffffffffffffffffffffffffffffff1916817bffffffffffffffffffffffffffffffffffffffffffffffffffffffff191614915050612799565b600190505b949350505050565b60007f01ffc9a7000000000000000000000000000000000000000000000000000000007bffffffffffffffffffffffffffffffffffffffffffffffffffffffff1916827bffffffffffffffffffffffffffffffffffffffffffffffffffffffff1916149050919050565b6128168383836128d1565b61281e6110da565b1561285e576040517f08c379a0000000000000000000000000000000000000000000000000000000008152600401612855906139c0565b60405180910390fd5b505050565b61286d83836129e5565b61287a600084848461260a565b6128b9576040517f08c379a00000000000000000000000000000000000000000000000000000000081526004016128b090613a40565b60405180910390fd5b505050565b600080823b905060008111915050919050565b6128dc838383612bb3565b600073ffffffffffffffffffffffffffffffffffffffff168373ffffffffffffffffffffffffffffffffffffffff16141561291f5761291a81612bb8565b61295e565b8173ffffffffffffffffffffffffffffffffffffffff168373ffffffffffffffffffffffffffffffffffffffff161461295d5761295c8382612c01565b5b5b600073ffffffffffffffffffffffffffffffffffffffff168273ffffffffffffffffffffffffffffffffffffffff1614156129a15761299c81612d6e565b6129e0565b8273ffffffffffffffffffffffffffffffffffffffff168273ffffffffffffffffffffffffffffffffffffffff16146129df576129de8282612eb1565b5b5b505050565b600073ffffffffffffffffffffffffffffffffffffffff168273ffffffffffffffffffffffffffffffffffffffff161415612a55576040517f08c379a0000000000000000000000000000000000000000000000000000000008152600401612a4c90613ba0565b60405180910390fd5b612a5e81611adc565b15612a9e576040517f08c379a0000000000000000000000000000000000000000000000000000000008152600401612a9590613a80565b60405180910390fd5b612aaa600083836125b8565b6001600360008473ffffffffffffffffffffffffffffffffffffffff1673ffffffffffffffffffffffffffffffffffffffff1681526020019081526020016000206000828254612afa9190613e49565b92505081905550816002600083815260200190815260200160002060006101000a81548173ffffffffffffffffffffffffffffffffffffffff021916908373ffffffffffffffffffffffffffffffffffffffff160217905550808273ffffffffffffffffffffffffffffffffffffffff16600073ffffffffffffffffffffffffffffffffffffffff167fddf252ad1be2c89b69c2b068fc378daa952ba7f163c4a11628f55a4df523b3ef60405160405180910390a45050565b505050565b6008805490506009600083815260200190815260200160002081905550600881908060018154018082558091505060019003906000526020600020016000909190919091505550565b60006001612c0e846111a3565b612c189190613f2a565b9050600060076000848152602001908152602001600020549050818114612cfd576000600660008673ffffffffffffffffffffffffffffffffffffffff1673ffffffffffffffffffffffffffffffffffffffff168152602001908152602001600020600084815260200190815260200160002054905080600660008773ffffffffffffffffffffffffffffffffffffffff1673ffffffffffffffffffffffffffffffffffffffff168152602001908152602001600020600084815260200190815260200160002081905550816007600083815260200190815260200160002081905550505b6007600084815260200190815260200160002060009055600660008573ffffffffffffffffffffffffffffffffffffffff1673ffffffffffffffffffffffffffffffffffffffff16815260200190815260200160002060008381526020019081526020016000206000905550505050565b60006001600880549050612d829190613f2a565b9050600060096000848152602001908152602001600020549050600060088381548110612dd8577f4e487b7100000000000000000000000000000000000000000000000000000000600052603260045260246000fd5b906000526020600020015490508060088381548110612e20577f4e487b7100000000000000000000000000000000000000000000000000000000600052603260045260246000fd5b906000526020600020018190555081600960008381526020019081526020016000208190555060096000858152602001908152602001600020600090556008805480612e95577f4e487b7100000000000000000000000000000000000000000000000000000000600052603160045260246000fd5b6001900381819060005260206000200160009055905550505050565b6000612ebc836111a3565b905081600660008573ffffffffffffffffffffffffffffffffffffffff1673ffffffffffffffffffffffffffffffffffffffff168152602001908152602001600020600083815260200190815260200160002081905550806007600084815260200190815260200160002081905550505050565b828054612f3c90614014565b90600052602060002090601f016020900481019282612f5e5760008555612fa5565b82601f10612f7757805160ff1916838001178555612fa5565b82800160010185558215612fa5579182015b82811115612fa4578251825591602001919060010190612f89565b5b509050612fb29190612fb6565b5090565b5b80821115612fcf576000816000905550600101612fb7565b5090565b6000612fe6612fe184613d60565b613d3b565b905082815260208101848484011115612ffe57600080fd5b613009848285613fd2565b509392505050565b600061302461301f84613d91565b613d3b565b90508281526020810184848401111561303c57600080fd5b613047848285613fd2565b509392505050565b60008135905061305e81614874565b92915050565b6000813590506130738161488b565b92915050565b600081359050613088816148a2565b92915050565b60008151905061309d816148a2565b92915050565b600082601f8301126130b457600080fd5b81356130c4848260208601612fd3565b91505092915050565b600082601f8301126130de57600080fd5b81356130ee848260208601613011565b91505092915050565b600081359050613106816148b9565b92915050565b60006020828403121561311e57600080fd5b600061312c8482850161304f565b91505092915050565b6000806040838503121561314857600080fd5b60006131568582860161304f565b92505060206131678582860161304f565b9150509250929050565b60008060006060848603121561318657600080fd5b60006131948682870161304f565b93505060206131a58682870161304f565b92505060406131b6868287016130f7565b9150509250925092565b600080600080608085870312156131d657600080fd5b60006131e48782880161304f565b94505060206131f58782880161304f565b9350506040613206878288016130f7565b925050606085013567ffffffffffffffff81111561322357600080fd5b61322f878288016130a3565b91505092959194509250565b6000806040838503121561324e57600080fd5b600061325c8582860161304f565b925050602061326d85828601613064565b9150509250929050565b6000806040838503121561328a57600080fd5b60006132988582860161304f565b92505060206132a9858286016130f7565b9150509250929050565b6000602082840312156132c557600080fd5b60006132d384828501613064565b91505092915050565b6000602082840312156132ee57600080fd5b60006132fc84828501613079565b91505092915050565b60006020828403121561331757600080fd5b60006133258482850161308e565b91505092915050565b60006020828403121561334057600080fd5b600082013567ffffffffffffffff81111561335a57600080fd5b613366848285016130cd565b91505092915050565b60006020828403121561338157600080fd5b600061338f848285016130f7565b91505092915050565b60006133a483836138a3565b60208301905092915050565b6133b981613f5e565b82525050565b60006133ca82613dd2565b6133d48185613e00565b93506133df83613dc2565b8060005b838110156134105781516133f78882613398565b975061340283613df3565b9250506001810190506133e3565b5085935050505092915050565b61342681613f70565b82525050565b600061343782613ddd565b6134418185613e11565b9350613451818560208601613fe1565b61345a816141ad565b840191505092915050565b600061347082613de8565b61347a8185613e2d565b935061348a818560208601613fe1565b613493816141ad565b840191505092915050565b60006134a982613de8565b6134b38185613e3e565b93506134c3818560208601613fe1565b80840191505092915050565b60006134dc602b83613e2d565b91506134e7826141be565b604082019050919050565b60006134ff601483613e2d565b915061350a8261420d565b602082019050919050565b6000613522600e83613e2d565b915061352d82614236565b602082019050919050565b6000613545602b83613e2d565b91506135508261425f565b604082019050919050565b6000613568603283613e2d565b9150613573826142ae565b604082019050919050565b600061358b602683613e2d565b9150613596826142fd565b604082019050919050565b60006135ae601c83613e2d565b91506135b98261434c565b602082019050919050565b60006135d1602483613e2d565b91506135dc82614375565b604082019050919050565b60006135f4601983613e2d565b91506135ff826143c4565b602082019050919050565b6000613617600983613e2d565b9150613622826143ed565b602082019050919050565b600061363a602c83613e2d565b915061364582614416565b604082019050919050565b600061365d601083613e2d565b915061366882614465565b602082019050919050565b6000613680603883613e2d565b915061368b8261448e565b604082019050919050565b60006136a3602a83613e2d565b91506136ae826144dd565b604082019050919050565b60006136c6602983613e2d565b91506136d18261452c565b604082019050919050565b60006136e9602083613e2d565b91506136f48261457b565b602082019050919050565b600061370c600883613e2d565b9150613717826145a4565b602082019050919050565b600061372f602c83613e2d565b915061373a826145cd565b604082019050919050565b6000613752602083613e2d565b915061375d8261461c565b602082019050919050565b6000613775602983613e2d565b915061378082614645565b604082019050919050565b6000613798602f83613e2d565b91506137a382614694565b604082019050919050565b60006137bb601183613e2d565b91506137c6826146e3565b602082019050919050565b60006137de602183613e2d565b91506137e98261470c565b604082019050919050565b6000613801600083613e22565b915061380c8261475b565b600082019050919050565b6000613824601083613e2d565b915061382f8261475e565b602082019050919050565b6000613847603183613e2d565b915061385282614787565b604082019050919050565b600061386a602c83613e2d565b9150613875826147d6565b604082019050919050565b600061388d603083613e2d565b915061389882614825565b604082019050919050565b6138ac81613fc8565b82525050565b6138bb81613fc8565b82525050565b60006138cd828561349e565b91506138d9828461349e565b91508190509392505050565b60006138f0826137f4565b9150819050919050565b600060208201905061390f60008301846133b0565b92915050565b600060808201905061392a60008301876133b0565b61393760208301866133b0565b61394460408301856138b2565b8181036060830152613956818461342c565b905095945050505050565b6000602082019050818103600083015261397b81846133bf565b905092915050565b6000602082019050613998600083018461341d565b92915050565b600060208201905081810360008301526139b88184613465565b905092915050565b600060208201905081810360008301526139d9816134cf565b9050919050565b600060208201905081810360008301526139f9816134f2565b9050919050565b60006020820190508181036000830152613a1981613515565b9050919050565b60006020820190508181036000830152613a3981613538565b9050919050565b60006020820190508181036000830152613a598161355b565b9050919050565b60006020820190508181036000830152613a798161357e565b9050919050565b60006020820190508181036000830152613a99816135a1565b9050919050565b60006020820190508181036000830152613ab9816135c4565b9050919050565b60006020820190508181036000830152613ad9816135e7565b9050919050565b60006020820190508181036000830152613af98161360a565b9050919050565b60006020820190508181036000830152613b198161362d565b9050919050565b60006020820190508181036000830152613b3981613650565b9050919050565b60006020820190508181036000830152613b5981613673565b9050919050565b60006020820190508181036000830152613b7981613696565b9050919050565b60006020820190508181036000830152613b99816136b9565b9050919050565b60006020820190508181036000830152613bb9816136dc565b9050919050565b60006020820190508181036000830152613bd9816136ff565b9050919050565b60006020820190508181036000830152613bf981613722565b9050919050565b60006020820190508181036000830152613c1981613745565b9050919050565b60006020820190508181036000830152613c3981613768565b9050919050565b60006020820190508181036000830152613c598161378b565b9050919050565b60006020820190508181036000830152613c79816137ae565b9050919050565b60006020820190508181036000830152613c99816137d1565b9050919050565b60006020820190508181036000830152613cb981613817565b9050919050565b60006020820190508181036000830152613cd98161383a565b9050919050565b60006020820190508181036000830152613cf98161385d565b9050919050565b60006020820190508181036000830152613d1981613880565b9050919050565b6000602082019050613d3560008301846138b2565b92915050565b6000613d45613d56565b9050613d518282614046565b919050565b6000604051905090565b600067ffffffffffffffff821115613d7b57613d7a61417e565b5b613d84826141ad565b9050602081019050919050565b600067ffffffffffffffff821115613dac57613dab61417e565b5b613db5826141ad565b9050602081019050919050565b6000819050602082019050919050565b600081519050919050565b600081519050919050565b600081519050919050565b6000602082019050919050565b600082825260208201905092915050565b600082825260208201905092915050565b600081905092915050565b600082825260208201905092915050565b600081905092915050565b6000613e5482613fc8565b9150613e5f83613fc8565b9250827fffffffffffffffffffffffffffffffffffffffffffffffffffffffffffffffff03821115613e9457613e936140f1565b5b828201905092915050565b6000613eaa82613fc8565b9150613eb583613fc8565b925082613ec557613ec4614120565b5b828204905092915050565b6000613edb82613fc8565b9150613ee683613fc8565b9250817fffffffffffffffffffffffffffffffffffffffffffffffffffffffffffffffff0483118215151615613f1f57613f1e6140f1565b5b828202905092915050565b6000613f3582613fc8565b9150613f4083613fc8565b925082821015613f5357613f526140f1565b5b828203905092915050565b6000613f6982613fa8565b9050919050565b60008115159050919050565b60007fffffffff0000000000000000000000000000000000000000000000000000000082169050919050565b600073ffffffffffffffffffffffffffffffffffffffff82169050919050565b6000819050919050565b82818337600083830152505050565b60005b83811015613fff578082015181840152602081019050613fe4565b8381111561400e576000848401525b50505050565b6000600282049050600182168061402c57607f821691505b602082108114156140405761403f61414f565b5b50919050565b61404f826141ad565b810181811067ffffffffffffffff8211171561406e5761406d61417e565b5b80604052505050565b600061408282613fc8565b91507fffffffffffffffffffffffffffffffffffffffffffffffffffffffffffffffff8214156140b5576140b46140f1565b5b600182019050919050565b60006140cb82613fc8565b91506140d683613fc8565b9250826140e6576140e5614120565b5b828206905092915050565b7f4e487b7100000000000000000000000000000000000000000000000000000000600052601160045260246000fd5b7f4e487b7100000000000000000000000000000000000000000000000000000000600052601260045260246000fd5b7f4e487b7100000000000000000000000000000000000000000000000000000000600052602260045260246000fd5b7f4e487b7100000000000000000000000000000000000000000000000000000000600052604160045260246000fd5b6000601f19601f8301169050919050565b7f4552433732315061757361626c653a20746f6b656e207472616e73666572207760008201527f68696c6520706175736564000000000000000000000000000000000000000000602082015250565b7f5061757361626c653a206e6f7420706175736564000000000000000000000000600082015250565b7f45786365656473206e756d626572000000000000000000000000000000000000600082015250565b7f455243373231456e756d657261626c653a206f776e657220696e646578206f7560008201527f74206f6620626f756e6473000000000000000000000000000000000000000000602082015250565b7f4552433732313a207472616e7366657220746f206e6f6e20455243373231526560008201527f63656976657220696d706c656d656e7465720000000000000000000000000000602082015250565b7f4f776e61626c653a206e6577206f776e657220697320746865207a65726f206160008201527f6464726573730000000000000000000000000000000000000000000000000000602082015250565b7f4552433732313a20746f6b656e20616c7265616479206d696e74656400000000600082015250565b7f4552433732313a207472616e7366657220746f20746865207a65726f2061646460008201527f7265737300000000000000000000000000000000000000000000000000000000602082015250565b7f4552433732313a20617070726f766520746f2063616c6c657200000000000000600082015250565b7f4d6178206c696d69740000000000000000000000000000000000000000000000600082015250565b7f4552433732313a206f70657261746f7220717565727920666f72206e6f6e657860008201527f697374656e7420746f6b656e0000000000000000000000000000000000000000602082015250565b7f5061757361626c653a2070617573656400000000000000000000000000000000600082015250565b7f4552433732313a20617070726f76652063616c6c6572206973206e6f74206f7760008201527f6e6572206e6f7220617070726f76656420666f7220616c6c0000000000000000602082015250565b7f4552433732313a2062616c616e636520717565727920666f7220746865207a6560008201527f726f206164647265737300000000000000000000000000000000000000000000602082015250565b7f4552433732313a206f776e657220717565727920666f72206e6f6e657869737460008201527f656e7420746f6b656e0000000000000000000000000000000000000000000000602082015250565b7f4552433732313a206d696e7420746f20746865207a65726f2061646472657373600082015250565b7f53616c6520656e64000000000000000000000000000000000000000000000000600082015250565b7f4552433732313a20617070726f76656420717565727920666f72206e6f6e657860008201527f697374656e7420746f6b656e0000000000000000000000000000000000000000602082015250565b7f4f776e61626c653a2063616c6c6572206973206e6f7420746865206f776e6572600082015250565b7f4552433732313a207472616e73666572206f6620746f6b656e2074686174206960008201527f73206e6f74206f776e0000000000000000000000000000000000000000000000602082015250565b7f4552433732314d657461646174613a2055524920717565727920666f72206e6f60008201527f6e6578697374656e7420746f6b656e0000000000000000000000000000000000602082015250565b7f56616c75652062656c6f77207072696365000000000000000000000000000000600082015250565b7f4552433732313a20617070726f76616c20746f2063757272656e74206f776e6560008201527f7200000000000000000000000000000000000000000000000000000000000000602082015250565b50565b7f5472616e73666572206661696c65642e00000000000000000000000000000000600082015250565b7f4552433732313a207472616e736665722063616c6c6572206973206e6f74206f60008201527f776e6572206e6f7220617070726f766564000000000000000000000000000000602082015250565b7f455243373231456e756d657261626c653a20676c6f62616c20696e646578206f60008201527f7574206f6620626f756e64730000000000000000000000000000000000000000602082015250565b7f4552433732314275726e61626c653a2063616c6c6572206973206e6f74206f7760008201527f6e6572206e6f7220617070726f76656400000000000000000000000000000000602082015250565b61487d81613f5e565b811461488857600080fd5b50565b61489481613f70565b811461489f57600080fd5b50565b6148ab81613f7c565b81146148b657600080fd5b50565b6148c281613fc8565b81146148cd57600080fd5b5056fea2646970667358221220f82d0fe05fa032d757a4e3c0fdec37e77475d00922ef61f77ec9a86f807dfc3464736f6c63430008040033",
  "linkReferences": {},
  "deployedLinkReferences": {}
}